{
  "contractName": "Patients",
  "abi": [
    {
      "constant": true,
      "inputs": [],
      "name": "Pcount",
      "outputs": [
        {
          "internalType": "uint256",
          "name": "",
          "type": "uint256"
        }
      ],
      "payable": false,
      "stateMutability": "view",
      "type": "function"
    },
    {
      "constant": true,
      "inputs": [
        {
          "internalType": "uint256",
          "name": "",
          "type": "uint256"
        }
      ],
      "name": "getPatient",
      "outputs": [
        {
          "internalType": "uint256",
          "name": "id",
          "type": "uint256"
        },
        {
          "internalType": "string",
          "name": "email",
          "type": "string"
        },
        {
          "internalType": "string",
          "name": "Name",
          "type": "string"
        },
        {
          "internalType": "string",
          "name": "bloodgroup",
          "type": "string"
        },
        {
          "internalType": "string",
          "name": "gender",
          "type": "string"
        },
        {
          "internalType": "address",
          "name": "patientAddress",
          "type": "address"
        }
      ],
      "payable": false,
      "stateMutability": "view",
      "type": "function"
    },
    {
      "constant": false,
      "inputs": [
        {
          "internalType": "string",
          "name": "email",
          "type": "string"
        },
        {
          "internalType": "string",
          "name": "Name",
          "type": "string"
        },
        {
          "internalType": "string",
          "name": "bloodgroup",
          "type": "string"
        },
        {
          "internalType": "string",
          "name": "gender",
          "type": "string"
        },
        {
          "internalType": "address",
          "name": "patientAddress",
          "type": "address"
        }
      ],
      "name": "setPatientData",
      "outputs": [],
      "payable": false,
      "stateMutability": "nonpayable",
      "type": "function"
    },
    {
      "constant": true,
      "inputs": [
        {
          "internalType": "uint256",
          "name": "_pid",
          "type": "uint256"
        }
      ],
      "name": "getPatientId",
      "outputs": [
        {
          "internalType": "uint256",
          "name": "",
          "type": "uint256"
        }
      ],
      "payable": false,
      "stateMutability": "view",
      "type": "function"
    },
    {
      "constant": true,
      "inputs": [
        {
          "internalType": "uint256",
          "name": "_pid",
          "type": "uint256"
        }
      ],
      "name": "FetchPatientDataById",
      "outputs": [
        {
          "internalType": "uint256",
          "name": "",
          "type": "uint256"
        },
        {
          "internalType": "string",
          "name": "",
          "type": "string"
        },
        {
          "internalType": "string",
          "name": "",
          "type": "string"
        },
        {
          "internalType": "string",
          "name": "",
          "type": "string"
        },
        {
          "internalType": "string",
          "name": "",
          "type": "string"
        },
        {
          "internalType": "address",
          "name": "",
          "type": "address"
        }
      ],
      "payable": false,
      "stateMutability": "view",
      "type": "function"
    }
  ],
  "bytecode": "0x6080604052600080556040518060400160405280600281526020017f4c4500000000000000000000000000000000000000000000000000000000000081525060019080519060200190620000559291906200006a565b503480156200006357600080fd5b5062000119565b828054600181600116156101000203166002900490600052602060002090601f016020900481019282601f10620000ad57805160ff1916838001178555620000de565b82800160010185558215620000de579182015b82811115620000dd578251825591602001919060010190620000c0565b5b509050620000ed9190620000f1565b5090565b6200011691905b8082111562000112576000816000905550600101620000f8565b5090565b90565b6112ea80620001296000396000f3fe608060405234801561001057600080fd5b50600436106100575760003560e01c80631e9c8c411461005c5780637d3a6796146102fc57806391fdfba01461052157806398d50eae14610563578063d80cb4a714610581575b600080fd5b6102fa600480360360a081101561007257600080fd5b810190808035906020019064010000000081111561008f57600080fd5b8201836020820111156100a157600080fd5b803590602001918460018302840111640100000000831117156100c357600080fd5b91908080601f016020809104026020016040519081016040528093929190818152602001838380828437600081840152601f19601f8201169050808301925050505050505091929192908035906020019064010000000081111561012657600080fd5b82018360208201111561013857600080fd5b8035906020019184600183028401116401000000008311171561015a57600080fd5b91908080601f016020809104026020016040519081016040528093929190818152602001838380828437600081840152601f19601f820116905080830192505050505050509192919290803590602001906401000000008111156101bd57600080fd5b8201836020820111156101cf57600080fd5b803590602001918460018302840111640100000000831117156101f157600080fd5b91908080601f016020809104026020016040519081016040528093929190818152602001838380828437600081840152601f19601f8201169050808301925050505050505091929192908035906020019064010000000081111561025457600080fd5b82018360208201111561026657600080fd5b8035906020019184600183028401116401000000008311171561028857600080fd5b91908080601f016020809104026020016040519081016040528093929190818152602001838380828437600081840152601f19601f820116905080830192505050505050509192919290803573ffffffffffffffffffffffffffffffffffffffff1690602001909291905050506107a6565b005b6103286004803603602081101561031257600080fd5b81019080803590602001909291905050506108df565b60405180878152602001806020018060200180602001806020018673ffffffffffffffffffffffffffffffffffffffff1673ffffffffffffffffffffffffffffffffffffffff16815260200185810385528a818151815260200191508051906020019080838360005b838110156103ac578082015181840152602081019050610391565b50505050905090810190601f1680156103d95780820380516001836020036101000a031916815260200191505b50858103845289818151815260200191508051906020019080838360005b838110156104125780820151818401526020810190506103f7565b50505050905090810190601f16801561043f5780820380516001836020036101000a031916815260200191505b50858103835288818151815260200191508051906020019080838360005b8381101561047857808201518184015260208101905061045d565b50505050905090810190601f1680156104a55780820380516001836020036101000a031916815260200191505b50858103825287818151815260200191508051906020019080838360005b838110156104de5780820151818401526020810190506104c3565b50505050905090810190601f16801561050b5780820380516001836020036101000a031916815260200191505b509a505050505050505050505060405180910390f35b61054d6004803603602081101561053757600080fd5b8101908080359060200190929190505050610b9b565b6040518082815260200191505060405180910390f35b61056b610bbb565b6040518082815260200191505060405180910390f35b6105ad6004803603602081101561059757600080fd5b8101908080359060200190929190505050610bc1565b60405180878152602001806020018060200180602001806020018673ffffffffffffffffffffffffffffffffffffffff1673ffffffffffffffffffffffffffffffffffffffff16815260200185810385528a818151815260200191508051906020019080838360005b83811015610631578082015181840152602081019050610616565b50505050905090810190601f16801561065e5780820380516001836020036101000a031916815260200191505b50858103845289818151815260200191508051906020019080838360005b8381101561069757808201518184015260208101905061067c565b50505050905090810190601f1680156106c45780820380516001836020036101000a031916815260200191505b50858103835288818151815260200191508051906020019080838360005b838110156106fd5780820151818401526020810190506106e2565b50505050905090810190601f16801561072a5780820380516001836020036101000a031916815260200191505b50858103825287818151815260200191508051906020019080838360005b83811015610763578082015181840152602081019050610748565b50505050905090810190601f1680156107905780820380516001836020036101000a031916815260200191505b509a505050505050505050505060405180910390f35b60008081548092919060010191905055506040518060c0016040528060005481526020018681526020018581526020018481526020018381526020013373ffffffffffffffffffffffffffffffffffffffff168152506003600080548152602001908152602001600020600082015181600001556020820151816001019080519060200190610836929190611210565b506040820151816002019080519060200190610853929190611210565b506060820151816003019080519060200190610870929190611210565b50608082015181600401908051906020019061088d929190611210565b5060a08201518160050160006101000a81548173ffffffffffffffffffffffffffffffffffffffff021916908373ffffffffffffffffffffffffffffffffffffffff1602179055509050505050505050565b6003602052806000526040600020600091509050806000015490806001018054600181600116156101000203166002900480601f0160208091040260200160405190810160405280929190818152602001828054600181600116156101000203166002900480156109915780601f1061096657610100808354040283529160200191610991565b820191906000526020600020905b81548152906001019060200180831161097457829003601f168201915b505050505090806002018054600181600116156101000203166002900480601f016020809104026020016040519081016040528092919081815260200182805460018160011615610100020316600290048015610a2f5780601f10610a0457610100808354040283529160200191610a2f565b820191906000526020600020905b815481529060010190602001808311610a1257829003601f168201915b505050505090806003018054600181600116156101000203166002900480601f016020809104026020016040519081016040528092919081815260200182805460018160011615610100020316600290048015610acd5780601f10610aa257610100808354040283529160200191610acd565b820191906000526020600020905b815481529060010190602001808311610ab057829003601f168201915b505050505090806004018054600181600116156101000203166002900480601f016020809104026020016040519081016040528092919081815260200182805460018160011615610100020316600290048015610b6b5780601f10610b4057610100808354040283529160200191610b6b565b820191906000526020600020905b815481529060010190602001808311610b4e57829003601f168201915b5050505050908060050160009054906101000a900473ffffffffffffffffffffffffffffffffffffffff16905086565b600060036000838152602001908152602001600020600001549050919050565b60005481565b600060608060608060006003600088815260200190815260200160002060050160009054906101000a900473ffffffffffffffffffffffffffffffffffffffff1673ffffffffffffffffffffffffffffffffffffffff163373ffffffffffffffffffffffffffffffffffffffff161415610f5c57600360008881526020019081526020016000206000015460036000898152602001908152602001600020600201600360008a8152602001908152602001600020600101600360008b8152602001908152602001600020600301600360008c8152602001908152602001600020600401600360008d815260200190815260200160002060050160009054906101000a900473ffffffffffffffffffffffffffffffffffffffff16848054600181600116156101000203166002900480601f016020809104026020016040519081016040528092919081815260200182805460018160011615610100020316600290048015610d705780601f10610d4557610100808354040283529160200191610d70565b820191906000526020600020905b815481529060010190602001808311610d5357829003601f168201915b50505050509450838054600181600116156101000203166002900480601f016020809104026020016040519081016040528092919081815260200182805460018160011615610100020316600290048015610e0c5780601f10610de157610100808354040283529160200191610e0c565b820191906000526020600020905b815481529060010190602001808311610def57829003601f168201915b50505050509350828054600181600116156101000203166002900480601f016020809104026020016040519081016040528092919081815260200182805460018160011615610100020316600290048015610ea85780601f10610e7d57610100808354040283529160200191610ea8565b820191906000526020600020905b815481529060010190602001808311610e8b57829003601f168201915b50505050509250818054600181600116156101000203166002900480601f016020809104026020016040519081016040528092919081815260200182805460018160011615610100020316600290048015610f445780601f10610f1957610100808354040283529160200191610f44565b820191906000526020600020905b815481529060010190602001808311610f2757829003601f168201915b50505050509150955095509550955095509550611207565b6000600180600180600260009054906101000a900473ffffffffffffffffffffffffffffffffffffffff16859550848054600181600116156101000203166002900480601f01602080910402602001604051908101604052809291908181526020018280546001816001161561010002031660029004801561101f5780601f10610ff45761010080835404028352916020019161101f565b820191906000526020600020905b81548152906001019060200180831161100257829003601f168201915b50505050509450838054600181600116156101000203166002900480601f0160208091040260200160405190810160405280929190818152602001828054600181600116156101000203166002900480156110bb5780601f10611090576101008083540402835291602001916110bb565b820191906000526020600020905b81548152906001019060200180831161109e57829003601f168201915b50505050509350828054600181600116156101000203166002900480601f0160208091040260200160405190810160405280929190818152602001828054600181600116156101000203166002900480156111575780601f1061112c57610100808354040283529160200191611157565b820191906000526020600020905b81548152906001019060200180831161113a57829003601f168201915b50505050509250818054600181600116156101000203166002900480601f0160208091040260200160405190810160405280929190818152602001828054600181600116156101000203166002900480156111f35780601f106111c8576101008083540402835291602001916111f3565b820191906000526020600020905b8154815290600101906020018083116111d657829003601f168201915b505050505091509550955095509550955095505b91939550919395565b828054600181600116156101000203166002900490600052602060002090601f016020900481019282601f1061125157805160ff191683800117855561127f565b8280016001018555821561127f579182015b8281111561127e578251825591602001919060010190611263565b5b50905061128c9190611290565b5090565b6112b291905b808211156112ae576000816000905550600101611296565b5090565b9056fea265627a7a72315820ff8dd924a4e35f4d99e5ba1e98b5c76fca55f6eeef02e2af21588d9bb67faead64736f6c63430005100032",
  "source": "pragma solidity ^0.5.0;\ncontract Patients {\n    uint public Pcount=0;\n    string errorString = \"LE\";\n    address nullAddress;\n    mapping(uint => Patient) public getPatient;\n   struct Patient {\n        uint id;\n        string email;\n        string Name;\n        string bloodgroup;\n        string gender;\n        address patientAddress;\n   }\n   function setPatientData(string memory email,string memory Name,string memory bloodgroup,string memory gender,address patientAddress) public{\n    Pcount++;\n     getPatient[Pcount] = Patient(Pcount,email,Name,bloodgroup,gender,msg.sender);\n   }\n  function getPatientId(uint _pid) public view returns (uint){\n      return getPatient[_pid].id;\n   }\n\n   //Login\n  function FetchPatientDataById(uint _pid)public view returns(uint,string memory,string memory,string memory,string memory,address)\n  {\n      if(msg.sender == getPatient[_pid].patientAddress)\n      {\n        return(getPatient[_pid].id,getPatient[_pid].Name,getPatient[_pid].email,getPatient[_pid].bloodgroup,getPatient[_pid].gender,getPatient[_pid].patientAddress);\n      }\n      else\n      {\n          return (0,errorString,errorString,errorString,errorString,nullAddress);\n      }\n    }\n    \n}\n\n",
  "sourcePath": "/home/tarun/Desktop/PracticePro/src/contracts/Patients.sol",
  "compiler": {
    "name": "solc",
    "version": "0.5.16+commit.9c3226ce.Emscripten.clang"
  },
  "schemaVersion": "3.0.23",
  "updatedAt": "2020-03-31T11:09:58.853Z",
  "networkType": "ethereum",
  "devdoc": {
    "methods": {}
  },
  "userdoc": {
    "methods": {}
  }
}