{
  "contractName": "Patients",
  "abi": [
    {
      "constant": true,
      "inputs": [],
      "name": "Pcount",
      "outputs": [
        {
          "internalType": "uint256",
          "name": "",
          "type": "uint256"
        }
      ],
      "payable": false,
      "stateMutability": "view",
      "type": "function"
    },
    {
      "constant": true,
      "inputs": [
        {
          "internalType": "uint256",
          "name": "",
          "type": "uint256"
        }
      ],
      "name": "getPatient",
      "outputs": [
        {
          "internalType": "uint256",
          "name": "id",
          "type": "uint256"
        },
        {
          "internalType": "string",
          "name": "email",
          "type": "string"
        },
        {
          "internalType": "string",
          "name": "Name",
          "type": "string"
        },
        {
          "internalType": "string",
          "name": "bloodgroup",
          "type": "string"
        },
        {
          "internalType": "string",
          "name": "gender",
          "type": "string"
        },
        {
          "internalType": "address",
          "name": "patientAddress",
          "type": "address"
        },
        {
          "internalType": "string",
          "name": "password",
          "type": "string"
        }
      ],
      "payable": false,
      "stateMutability": "view",
      "type": "function"
    },
    {
      "constant": false,
      "inputs": [
        {
          "internalType": "string",
          "name": "email",
          "type": "string"
        },
        {
          "internalType": "string",
          "name": "Name",
          "type": "string"
        },
        {
          "internalType": "string",
          "name": "bloodgroup",
          "type": "string"
        },
        {
          "internalType": "string",
          "name": "gender",
          "type": "string"
        },
        {
          "internalType": "address",
          "name": "patientAddress",
          "type": "address"
        },
        {
          "internalType": "string",
          "name": "password",
          "type": "string"
        }
      ],
      "name": "setPatientData",
      "outputs": [],
      "payable": false,
      "stateMutability": "nonpayable",
      "type": "function"
    },
    {
      "constant": true,
      "inputs": [
        {
          "internalType": "uint256",
          "name": "_pid",
          "type": "uint256"
        }
      ],
      "name": "getPatientId",
      "outputs": [
        {
          "internalType": "uint256",
          "name": "",
          "type": "uint256"
        }
      ],
      "payable": false,
      "stateMutability": "view",
      "type": "function"
    },
    {
      "constant": true,
      "inputs": [
        {
          "internalType": "uint256",
          "name": "_pid",
          "type": "uint256"
        }
      ],
      "name": "getPatientPass",
      "outputs": [
        {
          "internalType": "string",
          "name": "password",
          "type": "string"
        }
      ],
      "payable": false,
      "stateMutability": "view",
      "type": "function"
    }
  ],
  "bytecode": "0x6080604052600080556040518060400160405280600281526020017f4c4500000000000000000000000000000000000000000000000000000000000081525060019080519060200190610053929190610066565b5034801561006057600080fd5b5061010b565b828054600181600116156101000203166002900490600052602060002090601f016020900481019282601f106100a757805160ff19168380011785556100d5565b828001600101855582156100d5579182015b828111156100d45782518255916020019190600101906100b9565b5b5090506100e291906100e6565b5090565b61010891905b808211156101045760008160009055506001016100ec565b5090565b90565b610d9a8061011a6000396000f3fe608060405234801561001057600080fd5b50600436106100575760003560e01c80637d3a67961461005c57806391fdfba0146102ed57806393e35e0b1461032f57806398d50eae14610666578063c28c8fa714610684575b600080fd5b6100886004803603602081101561007257600080fd5b810190808035906020019092919050505061072b565b60405180888152602001806020018060200180602001806020018773ffffffffffffffffffffffffffffffffffffffff1673ffffffffffffffffffffffffffffffffffffffff1681526020018060200186810386528c818151815260200191508051906020019080838360005b838110156101105780820151818401526020810190506100f5565b50505050905090810190601f16801561013d5780820380516001836020036101000a031916815260200191505b5086810385528b818151815260200191508051906020019080838360005b8381101561017657808201518184015260208101905061015b565b50505050905090810190601f1680156101a35780820380516001836020036101000a031916815260200191505b5086810384528a818151815260200191508051906020019080838360005b838110156101dc5780820151818401526020810190506101c1565b50505050905090810190601f1680156102095780820380516001836020036101000a031916815260200191505b50868103835289818151815260200191508051906020019080838360005b83811015610242578082015181840152602081019050610227565b50505050905090810190601f16801561026f5780820380516001836020036101000a031916815260200191505b50868103825287818151815260200191508051906020019080838360005b838110156102a857808201518184015260208101905061028d565b50505050905090810190601f1680156102d55780820380516001836020036101000a031916815260200191505b509c5050505050505050505050505060405180910390f35b6103196004803603602081101561030357600080fd5b8101908080359060200190929190505050610a85565b6040518082815260200191505060405180910390f35b610664600480360360c081101561034557600080fd5b810190808035906020019064010000000081111561036257600080fd5b82018360208201111561037457600080fd5b8035906020019184600183028401116401000000008311171561039657600080fd5b91908080601f016020809104026020016040519081016040528093929190818152602001838380828437600081840152601f19601f820116905080830192505050505050509192919290803590602001906401000000008111156103f957600080fd5b82018360208201111561040b57600080fd5b8035906020019184600183028401116401000000008311171561042d57600080fd5b91908080601f016020809104026020016040519081016040528093929190818152602001838380828437600081840152601f19601f8201169050808301925050505050505091929192908035906020019064010000000081111561049057600080fd5b8201836020820111156104a257600080fd5b803590602001918460018302840111640100000000831117156104c457600080fd5b91908080601f016020809104026020016040519081016040528093929190818152602001838380828437600081840152601f19601f8201169050808301925050505050505091929192908035906020019064010000000081111561052757600080fd5b82018360208201111561053957600080fd5b8035906020019184600183028401116401000000008311171561055b57600080fd5b91908080601f016020809104026020016040519081016040528093929190818152602001838380828437600081840152601f19601f820116905080830192505050505050509192919290803573ffffffffffffffffffffffffffffffffffffffff169060200190929190803590602001906401000000008111156105de57600080fd5b8201836020820111156105f057600080fd5b8035906020019184600183028401116401000000008311171561061257600080fd5b91908080601f016020809104026020016040519081016040528093929190818152602001838380828437600081840152601f19601f820116905080830192505050505050509192919290505050610aa5565b005b61066e610c02565b6040518082815260200191505060405180910390f35b6106b06004803603602081101561069a57600080fd5b8101908080359060200190929190505050610c08565b6040518080602001828103825283818151815260200191508051906020019080838360005b838110156106f05780820151818401526020810190506106d5565b50505050905090810190601f16801561071d5780820380516001836020036101000a031916815260200191505b509250505060405180910390f35b6003602052806000526040600020600091509050806000015490806001018054600181600116156101000203166002900480601f0160208091040260200160405190810160405280929190818152602001828054600181600116156101000203166002900480156107dd5780601f106107b2576101008083540402835291602001916107dd565b820191906000526020600020905b8154815290600101906020018083116107c057829003601f168201915b505050505090806002018054600181600116156101000203166002900480601f01602080910402602001604051908101604052809291908181526020018280546001816001161561010002031660029004801561087b5780601f106108505761010080835404028352916020019161087b565b820191906000526020600020905b81548152906001019060200180831161085e57829003601f168201915b505050505090806003018054600181600116156101000203166002900480601f0160208091040260200160405190810160405280929190818152602001828054600181600116156101000203166002900480156109195780601f106108ee57610100808354040283529160200191610919565b820191906000526020600020905b8154815290600101906020018083116108fc57829003601f168201915b505050505090806004018054600181600116156101000203166002900480601f0160208091040260200160405190810160405280929190818152602001828054600181600116156101000203166002900480156109b75780601f1061098c576101008083540402835291602001916109b7565b820191906000526020600020905b81548152906001019060200180831161099a57829003601f168201915b5050505050908060050160009054906101000a900473ffffffffffffffffffffffffffffffffffffffff1690806006018054600181600116156101000203166002900480601f016020809104026020016040519081016040528092919081815260200182805460018160011615610100020316600290048015610a7b5780601f10610a5057610100808354040283529160200191610a7b565b820191906000526020600020905b815481529060010190602001808311610a5e57829003601f168201915b5050505050905087565b600060036000838152602001908152602001600020600001549050919050565b60008081548092919060010191905055506040518060e0016040528060005481526020018781526020018681526020018581526020018481526020013373ffffffffffffffffffffffffffffffffffffffff168152602001828152506003600080548152602001908152602001600020600082015181600001556020820151816001019080519060200190610b3b929190610cc0565b506040820151816002019080519060200190610b58929190610cc0565b506060820151816003019080519060200190610b75929190610cc0565b506080820151816004019080519060200190610b92929190610cc0565b5060a08201518160050160006101000a81548173ffffffffffffffffffffffffffffffffffffffff021916908373ffffffffffffffffffffffffffffffffffffffff16021790555060c0820151816006019080519060200190610bf6929190610cc0565b50905050505050505050565b60005481565b6060600360008381526020019081526020016000206006018054600181600116156101000203166002900480601f016020809104026020016040519081016040528092919081815260200182805460018160011615610100020316600290048015610cb45780601f10610c8957610100808354040283529160200191610cb4565b820191906000526020600020905b815481529060010190602001808311610c9757829003601f168201915b50505050509050919050565b828054600181600116156101000203166002900490600052602060002090601f016020900481019282601f10610d0157805160ff1916838001178555610d2f565b82800160010185558215610d2f579182015b82811115610d2e578251825591602001919060010190610d13565b5b509050610d3c9190610d40565b5090565b610d6291905b80821115610d5e576000816000905550600101610d46565b5090565b9056fea265627a7a7231582055e01cf0e276855c4a358506d2cbe9af55348f6d98ed12ca73d4dfee11cdd06164736f6c63430005100032",
  "source": "pragma solidity ^0.5.0;\r\ncontract Patients {\r\n    uint public Pcount=0;\r\n    string errorString = \"LE\";\r\n    address nullAddress;\r\n    mapping(uint => Patient) public getPatient;\r\n   struct Patient {\r\n        uint id;\r\n        string email;\r\n        string Name;\r\n        string bloodgroup;\r\n        string gender;\r\n        address patientAddress;\r\n        string password;\r\n   }\r\n   function setPatientData(string memory email,string memory Name,string memory bloodgroup,string memory gender,address patientAddress,string memory password) public{\r\n    Pcount++;\r\n     getPatient[Pcount] = Patient(Pcount,email,Name,bloodgroup,gender,msg.sender,password);\r\n   }\r\n  function getPatientId(uint _pid) public view returns (uint){\r\n      return getPatient[_pid].id;\r\n   }\r\n   \r\nfunction getPatientPass(uint _pid) public view returns (string memory password){\r\n      return getPatient[_pid].password;\r\n   }\r\n   \r\n\r\n    \r\n}\r\n\r\n",
  "sourcePath": "C:/Users/Lenovo/Desktop/sem VIII/MMi/MMi/src/contracts/Patients.sol",
  "compiler": {
    "name": "solc",
    "version": "0.5.16+commit.9c3226ce.Emscripten.clang"
  },
  "schemaVersion": "3.2.5",
  "updatedAt": "2020-09-11T09:58:18.077Z",
  "networkType": "ethereum",
  "devdoc": {
    "methods": {}
  },
  "userdoc": {
    "methods": {}
  }
}