{
  "contractName": "Presc",
  "abi": [
    {
      "constant": true,
      "inputs": [],
      "name": "Pcount",
      "outputs": [
        {
          "internalType": "uint256",
          "name": "",
          "type": "uint256"
        }
      ],
      "payable": false,
      "stateMutability": "view",
      "type": "function"
    },
    {
      "constant": true,
      "inputs": [
        {
          "internalType": "uint256",
          "name": "",
          "type": "uint256"
        }
      ],
      "name": "userStructs",
      "outputs": [
        {
          "internalType": "uint256",
          "name": "id",
          "type": "uint256"
        }
      ],
      "payable": false,
      "stateMutability": "view",
      "type": "function"
    },
    {
      "constant": false,
      "inputs": [
        {
          "internalType": "uint256",
          "name": "_id",
          "type": "uint256"
        },
        {
          "internalType": "string",
          "name": "med",
          "type": "string"
        }
      ],
      "name": "addMed",
      "outputs": [],
      "payable": false,
      "stateMutability": "nonpayable",
      "type": "function"
    },
    {
      "constant": true,
      "inputs": [
        {
          "internalType": "uint256",
          "name": "_pid",
          "type": "uint256"
        }
      ],
      "name": "getData",
      "outputs": [
        {
          "internalType": "uint256",
          "name": "",
          "type": "uint256"
        },
        {
          "internalType": "string[]",
          "name": "",
          "type": "string[]"
        }
      ],
      "payable": false,
      "stateMutability": "view",
      "type": "function"
    }
  ],
  "bytecode": "0x60806040526000805534801561001457600080fd5b506106ab806100246000396000f3fe608060405234801561001057600080fd5b506004361061004c5760003560e01c80630178fe3f1461005157806370cbc97c146100825780637a286dac1461009e57806398d50eae146100ce575b600080fd5b61006b600480360361006691908101906103ad565b6100ec565b604051610079929190610516565b60405180910390f35b61009c600480360361009791908101906103d6565b610209565b005b6100b860048036036100b391908101906103ad565b61027b565b6040516100c591906104fb565b60405180910390f35b6100d6610299565b6040516100e391906104fb565b60405180910390f35b6000606060016000848152602001908152602001600020600001546001600085815260200190815260200160002060010180805480602002602001604051908101604052809291908181526020016000905b828210156101fa578382906000526020600020018054600181600116156101000203166002900480601f0160208091040260200160405190810160405280929190818152602001828054600181600116156101000203166002900480156101e65780601f106101bb576101008083540402835291602001916101e6565b820191906000526020600020905b8154815290600101906020018083116101c957829003601f168201915b50505050508152602001906001019061013e565b50505050905091509150915091565b8160016000848152602001908152602001600020600001819055506001600083815260200190815260200160002060010181908060018154018082558091505090600182039060005260206000200160009091929091909150908051906020019061027592919061029f565b50505050565b60016020528060005260406000206000915090508060000154905081565b60005481565b828054600181600116156101000203166002900490600052602060002090601f016020900481019282601f106102e057805160ff191683800117855561030e565b8280016001018555821561030e579182015b8281111561030d5782518255916020019190600101906102f2565b5b50905061031b919061031f565b5090565b61034191905b8082111561033d576000816000905550600101610325565b5090565b90565b600082601f83011261035557600080fd5b813561036861036382610573565b610546565b9150808252602083016020830185838301111561038457600080fd5b61038f8382846105fe565b50505092915050565b6000813590506103a781610651565b92915050565b6000602082840312156103bf57600080fd5b60006103cd84828501610398565b91505092915050565b600080604083850312156103e957600080fd5b60006103f785828601610398565b925050602083013567ffffffffffffffff81111561041457600080fd5b61042085828601610344565b9150509250929050565b600061043683836104b3565b905092915050565b6000610449826105af565b61045381856105d2565b9350836020820285016104658561059f565b8060005b858110156104a15784840389528151610482858261042a565b945061048d836105c5565b925060208a01995050600181019050610469565b50829750879550505050505092915050565b60006104be826105ba565b6104c881856105e3565b93506104d881856020860161060d565b6104e181610640565b840191505092915050565b6104f5816105f4565b82525050565b600060208201905061051060008301846104ec565b92915050565b600060408201905061052b60008301856104ec565b818103602083015261053d818461043e565b90509392505050565b6000604051905081810181811067ffffffffffffffff8211171561056957600080fd5b8060405250919050565b600067ffffffffffffffff82111561058a57600080fd5b601f19601f8301169050602081019050919050565b6000819050602082019050919050565b600081519050919050565b600081519050919050565b6000602082019050919050565b600082825260208201905092915050565b600082825260208201905092915050565b6000819050919050565b82818337600083830152505050565b60005b8381101561062b578082015181840152602081019050610610565b8381111561063a576000848401525b50505050565b6000601f19601f8301169050919050565b61065a816105f4565b811461066557600080fd5b5056fea365627a7a72315820a7d1b866db9cd36bcba7703424d4603c331c6ee69f5b122b1225799e956f31336c6578706572696d656e74616cf564736f6c63430005100040",
  "source": "pragma solidity ^0.5.0;\npragma experimental ABIEncoderV2;\ncontract Presc {\n    uint public Pcount=0;\nstruct pres {\n  uint id;\n  string[] meds;\n\n}\nmapping(uint => pres) public userStructs;\n\nfunction addMed(uint _id, string memory med) public  {\n userStructs[_id].id = _id;\n  userStructs[_id].meds.push(med);\n\n}\n function getData(uint _pid) public view returns (uint, string[] memory){\n     \n      return (userStructs[_pid].id,userStructs[_pid].meds);\n    //  return (userStructs[_pid].id,userStructs[_pid].meds[1]);\n      \n   }\n}\n",
  "sourcePath": "/home/tarun/Desktop/MMi/src/contracts/Prescription.sol",
  "compiler": {
    "name": "solc",
    "version": "0.5.16+commit.9c3226ce.Emscripten.clang"
  },
  "schemaVersion": "3.0.23",
  "updatedAt": "2020-04-12T20:50:20.840Z",
  "networkType": "ethereum",
  "devdoc": {
    "methods": {}
  },
  "userdoc": {
    "methods": {}
  }
}