{
  "contractName": "Presc",
  "abi": [
    {
      "constant": true,
      "inputs": [],
      "name": "index",
      "outputs": [
        {
          "internalType": "uint256",
          "name": "",
          "type": "uint256"
        }
      ],
      "payable": false,
      "stateMutability": "view",
      "type": "function"
    },
    {
      "constant": true,
      "inputs": [],
      "name": "lastTestStringResult",
      "outputs": [
        {
          "internalType": "string",
          "name": "",
          "type": "string"
        }
      ],
      "payable": false,
      "stateMutability": "view",
      "type": "function"
    },
    {
      "constant": true,
      "inputs": [
        {
          "internalType": "uint256",
          "name": "",
          "type": "uint256"
        }
      ],
      "name": "userStructs",
      "outputs": [
        {
          "internalType": "uint256",
          "name": "id",
          "type": "uint256"
        }
      ],
      "payable": false,
      "stateMutability": "view",
      "type": "function"
    },
    {
      "constant": false,
      "inputs": [
        {
          "internalType": "uint256",
          "name": "_id",
          "type": "uint256"
        },
        {
          "internalType": "string",
          "name": "med",
          "type": "string"
        },
        {
          "internalType": "string",
          "name": "_reqRep",
          "type": "string"
        }
      ],
      "name": "addMed",
      "outputs": [],
      "payable": false,
      "stateMutability": "nonpayable",
      "type": "function"
    },
    {
      "constant": false,
      "inputs": [
        {
          "internalType": "string",
          "name": "a",
          "type": "string"
        },
        {
          "internalType": "string",
          "name": "b",
          "type": "string"
        }
      ],
      "name": "compareStrings",
      "outputs": [
        {
          "internalType": "bool",
          "name": "",
          "type": "bool"
        }
      ],
      "payable": false,
      "stateMutability": "nonpayable",
      "type": "function"
    },
    {
      "constant": true,
      "inputs": [
        {
          "internalType": "uint256",
          "name": "_pid",
          "type": "uint256"
        }
      ],
      "name": "getData",
      "outputs": [
        {
          "internalType": "uint256",
          "name": "",
          "type": "uint256"
        },
        {
          "internalType": "string[]",
          "name": "",
          "type": "string[]"
        },
        {
          "internalType": "string[]",
          "name": "",
          "type": "string[]"
        },
        {
          "internalType": "string[]",
          "name": "",
          "type": "string[]"
        }
      ],
      "payable": false,
      "stateMutability": "view",
      "type": "function"
    },
    {
      "constant": false,
      "inputs": [
        {
          "internalType": "uint256",
          "name": "_pid",
          "type": "uint256"
        }
      ],
      "name": "getReportForLab",
      "outputs": [
        {
          "internalType": "string[]",
          "name": "",
          "type": "string[]"
        }
      ],
      "payable": false,
      "stateMutability": "nonpayable",
      "type": "function"
    }
  ],
  "bytecode": "0x608060405234801561001057600080fd5b5061118e806100206000396000f3fe608060405234801561001057600080fd5b506004361061007d5760003560e01c80637a286dac1161005b5780637a286dac146100ef578063bed34bba1461011f578063ef0c930a1461014f578063f45f00331461016d5761007d565b80630178fe3f146100825780632986c0e5146100b55780636786c146146100d3575b600080fd5b61009c60048036036100979190810190610cdf565b61019d565b6040516100ac9493929190610f9c565b60405180910390f35b6100bd6104b5565b6040516100ca9190610f81565b60405180910390f35b6100ed60048036036100e89190810190610d08565b6104bb565b005b61010960048036036101049190810190610cdf565b6107d9565b6040516101169190610f81565b60405180910390f35b61013960048036036101349190810190610c73565b6107f7565b6040516101469190610f24565b60405180910390f35b610157610850565b6040516101649190610f3f565b60405180910390f35b61018760048036036101829190810190610cdf565b6108ee565b6040516101949190610f02565b60405180910390f35b60006060806060600260008681526020019081526020016000206000015460026000878152602001908152602001600020600201600260008881526020019081526020016000206003016002600089815260200190815260200160002060040182805480602002602001604051908101604052809291908181526020016000905b828210156102da578382906000526020600020018054600181600116156101000203166002900480601f0160208091040260200160405190810160405280929190818152602001828054600181600116156101000203166002900480156102c65780601f1061029b576101008083540402835291602001916102c6565b820191906000526020600020905b8154815290600101906020018083116102a957829003601f168201915b50505050508152602001906001019061021e565b50505050925081805480602002602001604051908101604052809291908181526020016000905b828210156103bd578382906000526020600020018054600181600116156101000203166002900480601f0160208091040260200160405190810160405280929190818152602001828054600181600116156101000203166002900480156103a95780601f1061037e576101008083540402835291602001916103a9565b820191906000526020600020905b81548152906001019060200180831161038c57829003601f168201915b505050505081526020019060010190610301565b50505050915080805480602002602001604051908101604052809291908181526020016000905b828210156104a0578382906000526020600020018054600181600116156101000203166002900480601f01602080910402602001604051908101604052809291908181526020018280546001816001161561010002031660029004801561048c5780601f106104615761010080835404028352916020019161048c565b820191906000526020600020905b81548152906001019060200180831161046f57829003601f168201915b5050505050815260200190600101906103e4565b50505050905093509350935093509193509193565b60005481565b82600260008581526020019081526020016000206000018190555060026000848152602001908152602001600020600201829080600181540180825580915050906001820390600052602060002001600090919290919091509080519060200190610527929190610b65565b50506002600084815260200190815260200160002060030181908060018154018082558091505090600182039060005260206000200160009091929091909150908051906020019061057a929190610b65565b5050600260008481526020019081526020016000206001018054905060008190555060026000848152602001908152602001600020600101600054908060018154018082558091505090600182039060005260206000200160009091929091909150555060006106be600260008681526020019081526020016000206003016000548154811061060657fe5b906000526020600020018054600181600116156101000203166002900480601f0160208091040260200160405190810160405280929190818152602001828054600181600116156101000203166002900480156106a45780601f10610679576101008083540402835291602001916106a4565b820191906000526020600020905b81548152906001019060200180831161068757829003601f168201915b5050505050604051806020016040528060008152506107f7565b90508061074e57600260008581526020019081526020016000206004018060018154018082558091505090600182039060005260206000200160006040518060400160405280600581526020017f66616c736500000000000000000000000000000000000000000000000000000081525090919091509080519060200190610747929190610b65565b50506107d3565b600260008581526020019081526020016000206004018060018154018082558091505090600182039060005260206000200160006040518060400160405280600481526020017f6e756c6c00000000000000000000000000000000000000000000000000000000815250909190915090805190602001906107d0929190610b65565b50505b50505050565b60026020528060005260406000206000915090508060000154905081565b60008160405160200161080a9190610eeb565b60405160208183030381529060405280519060200120836040516020016108319190610eeb565b6040516020818303038152906040528051906020012014905092915050565b60018054600181600116156101000203166002900480601f0160208091040260200160405190810160405280929190818152602001828054600181600116156101000203166002900480156108e65780601f106108bb576101008083540402835291602001916108e6565b820191906000526020600020905b8154815290600101906020018083116108c957829003601f168201915b505050505081565b606080600080905060008090505b6002600086815260200190815260200160002060040180549050811015610b5a576000610a2160026000888152602001908152602001600020600401838154811061094357fe5b906000526020600020018054600181600116156101000203166002900480601f0160208091040260200160405190810160405280929190818152602001828054600181600116156101000203166002900480156109e15780601f106109b6576101008083540402835291602001916109e1565b820191906000526020600020905b8154815290600101906020018083116109c457829003601f168201915b50505050506040518060400160405280600581526020017f66616c73650000000000000000000000000000000000000000000000000000008152506107f7565b90508015610b1157600260008781526020019081526020016000206003018281548110610a4a57fe5b906000526020600020018054600181600116156101000203166002900480601f016020809104026020016040519081016040528092919081815260200182805460018160011615610100020316600290048015610ae85780601f10610abd57610100808354040283529160200191610ae8565b820191906000526020600020905b815481529060010190602001808311610acb57829003601f168201915b5050505050848481518110610af957fe5b60200260200101819052508280600101935050610b4c565b6040517f08c379a0000000000000000000000000000000000000000000000000000000008152600401610b4390610f61565b60405180910390fd5b5080806001019150506108fc565b508192505050919050565b828054600181600116156101000203166002900490600052602060002090601f016020900481019282601f10610ba657805160ff1916838001178555610bd4565b82800160010185558215610bd4579182015b82811115610bd3578251825591602001919060010190610bb8565b5b509050610be19190610be5565b5090565b610c0791905b80821115610c03576000816000905550600101610beb565b5090565b90565b600082601f830112610c1b57600080fd5b8135610c2e610c2982611023565b610ff6565b91508082526020830160208301858383011115610c4a57600080fd5b610c558382846110e1565b50505092915050565b600081359050610c6d81611134565b92915050565b60008060408385031215610c8657600080fd5b600083013567ffffffffffffffff811115610ca057600080fd5b610cac85828601610c0a565b925050602083013567ffffffffffffffff811115610cc957600080fd5b610cd585828601610c0a565b9150509250929050565b600060208284031215610cf157600080fd5b6000610cff84828501610c5e565b91505092915050565b600080600060608486031215610d1d57600080fd5b6000610d2b86828701610c5e565b935050602084013567ffffffffffffffff811115610d4857600080fd5b610d5486828701610c0a565b925050604084013567ffffffffffffffff811115610d7157600080fd5b610d7d86828701610c0a565b9150509250925092565b6000610d938383610e50565b905092915050565b6000610da68261105f565b610db0818561108d565b935083602082028501610dc28561104f565b8060005b85811015610dfe5784840389528151610ddf8582610d87565b9450610dea83611080565b925060208a01995050600181019050610dc6565b50829750879550505050505092915050565b610e19816110cb565b82525050565b6000610e2a82611075565b610e3481856110c0565b9350610e448185602086016110f0565b80840191505092915050565b6000610e5b8261106a565b610e65818561109e565b9350610e758185602086016110f0565b610e7e81611123565b840191505092915050565b6000610e948261106a565b610e9e81856110af565b9350610eae8185602086016110f0565b610eb781611123565b840191505092915050565b6000610ecf6000836110af565b9150600082019050919050565b610ee5816110d7565b82525050565b6000610ef78284610e1f565b915081905092915050565b60006020820190508181036000830152610f1c8184610d9b565b905092915050565b6000602082019050610f396000830184610e10565b92915050565b60006020820190508181036000830152610f598184610e89565b905092915050565b60006020820190508181036000830152610f7a81610ec2565b9050919050565b6000602082019050610f966000830184610edc565b92915050565b6000608082019050610fb16000830187610edc565b8181036020830152610fc38186610d9b565b90508181036040830152610fd78185610d9b565b90508181036060830152610feb8184610d9b565b905095945050505050565b6000604051905081810181811067ffffffffffffffff8211171561101957600080fd5b8060405250919050565b600067ffffffffffffffff82111561103a57600080fd5b601f19601f8301169050602081019050919050565b6000819050602082019050919050565b600081519050919050565b600081519050919050565b600081519050919050565b6000602082019050919050565b600082825260208201905092915050565b600082825260208201905092915050565b600082825260208201905092915050565b600081905092915050565b60008115159050919050565b6000819050919050565b82818337600083830152505050565b60005b8381101561110e5780820151818401526020810190506110f3565b8381111561111d576000848401525b50505050565b6000601f19601f8301169050919050565b61113d816110d7565b811461114857600080fd5b5056fea365627a7a72315820f34840631a8935f9312772f298ab6d20f32bb3456c6087ef3e1ca0af2268c1996c6578706572696d656e74616cf564736f6c63430005100040",
  "source": "pragma solidity ^0.5.0;\npragma experimental ABIEncoderV2;\ncontract Presc {\n    uint public index ;\n    string public lastTestStringResult; \n  \n  struct pres {\n    uint id;\n    uint []ReqRep;\n    string[] meds;\n    string[] RequestReport;\n    string[] isResolved;\n  }\n  \nmapping(uint => pres) public userStructs;\n\nfunction addMed(uint _id, string memory med, string memory _reqRep) public  {\nuserStructs[_id].id = _id;\n  userStructs[_id].meds.push(med);\n  userStructs[_id].RequestReport.push(_reqRep);\n // if(userStructs[_id].ReqRep.length == 0){\n    index = (userStructs[_id].ReqRep.length);\n  /*}else\n  {\n      index = ( userStructs[_id].ReqRep.length);\n  }*/\nuserStructs[_id].ReqRep.push(index);\n    bool compBool =  compareStrings((userStructs[_id].RequestReport[index]),\"\");\n        if(!compBool){\n                userStructs[_id].isResolved.push(\"false\");\n        }\n        else{\n                userStructs[_id].isResolved.push(\"null\");\n        }\n    }\n  function compareStrings (string memory a, string memory b) public  returns (bool) {\n            return (keccak256(abi.encodePacked((a))) == keccak256(abi.encodePacked((b))) );\n       }\n       \n         \nfunction getData(uint _pid) public view returns (uint, string[] memory,string[] memory,string[] memory){\n      return (userStructs[_pid].id,userStructs[_pid].meds,userStructs[_pid].RequestReport,userStructs[_pid].isResolved);\n   }\n   \n    \n  function getReportForLab(uint _pid) public  returns(string[] memory){\n      string[]  memory falseStatusReports;\n      uint  ind= 0;\n      \n      for(uint i=0;i<userStructs[_pid].isResolved.length;i++){\n        bool compBool =  compareStrings((userStructs[_pid].isResolved[i]),\"false\");\n        if(compBool){\n            falseStatusReports[ind] =   userStructs[_pid].RequestReport[i];\n         //   falseStatusReports.push(userStructs[_pid].RequestReport[i]);        \n              ind++;\n        }\n        else{\n              revert(\"\");\n               // userStructs[_id].isResolved.push(\"null\");\n        }\n      }\n      return(falseStatusReports);\n    }\n}",
  "sourcePath": "/home/tarun/Desktop/MMi/src/contracts/Prescription.sol",
  "compiler": {
    "name": "solc",
    "version": "0.5.16+commit.9c3226ce.Emscripten.clang"
  },
  "schemaVersion": "3.0.23",
  "updatedAt": "2020-04-17T05:59:24.870Z",
  "networkType": "ethereum",
  "devdoc": {
    "methods": {}
  },
  "userdoc": {
    "methods": {}
  }
}