{
  "contractName": "Presc",
  "abi": [
    {
      "constant": true,
      "inputs": [],
      "name": "index",
      "outputs": [
        {
          "internalType": "uint256",
          "name": "",
          "type": "uint256"
        }
      ],
      "payable": false,
      "stateMutability": "view",
      "type": "function"
    },
    {
      "constant": true,
      "inputs": [],
      "name": "lastTestStringResult",
      "outputs": [
        {
          "internalType": "string",
          "name": "",
          "type": "string"
        }
      ],
      "payable": false,
      "stateMutability": "view",
      "type": "function"
    },
    {
      "constant": true,
      "inputs": [
        {
          "internalType": "uint256",
          "name": "",
          "type": "uint256"
        }
      ],
      "name": "userStructs",
      "outputs": [
        {
          "internalType": "uint256",
          "name": "id",
          "type": "uint256"
        }
      ],
      "payable": false,
      "stateMutability": "view",
      "type": "function"
    },
    {
      "constant": false,
      "inputs": [
        {
          "internalType": "uint256",
          "name": "_id",
          "type": "uint256"
        },
        {
          "internalType": "string",
          "name": "med",
          "type": "string"
        },
        {
          "internalType": "string",
          "name": "_reqRep",
          "type": "string"
        }
      ],
      "name": "addMed",
      "outputs": [],
      "payable": false,
      "stateMutability": "nonpayable",
      "type": "function"
    },
    {
      "constant": false,
      "inputs": [
        {
          "internalType": "string",
          "name": "a",
          "type": "string"
        },
        {
          "internalType": "string",
          "name": "b",
          "type": "string"
        }
      ],
      "name": "compareStrings",
      "outputs": [
        {
          "internalType": "bool",
          "name": "",
          "type": "bool"
        }
      ],
      "payable": false,
      "stateMutability": "nonpayable",
      "type": "function"
    },
    {
      "constant": true,
      "inputs": [
        {
          "internalType": "uint256",
          "name": "_pid",
          "type": "uint256"
        }
      ],
      "name": "getData",
      "outputs": [
        {
          "internalType": "uint256",
          "name": "",
          "type": "uint256"
        },
        {
          "internalType": "string[]",
          "name": "",
          "type": "string[]"
        },
        {
          "internalType": "string[]",
          "name": "",
          "type": "string[]"
        },
        {
          "internalType": "string[]",
          "name": "",
          "type": "string[]"
        }
      ],
      "payable": false,
      "stateMutability": "view",
      "type": "function"
    },
    {
      "constant": false,
      "inputs": [
        {
          "internalType": "uint256",
          "name": "_id",
          "type": "uint256"
        },
        {
          "internalType": "string[]",
          "name": "_reqRep",
          "type": "string[]"
        },
        {
          "internalType": "string[]",
          "name": "_isResolved",
          "type": "string[]"
        }
      ],
      "name": "updateArray",
      "outputs": [],
      "payable": false,
      "stateMutability": "nonpayable",
      "type": "function"
    }
  ],
  "bytecode": "0x608060405234801561001057600080fd5b506111f1806100206000396000f3fe608060405234801561001057600080fd5b506004361061007d5760003560e01c80636786c1461161005b5780636786c146146100ef5780637a286dac1461010b578063bed34bba1461013b578063ef0c930a1461016b5761007d565b80630178fe3f146100825780632986c0e5146100b55780635b6323bb146100d3575b600080fd5b61009c60048036036100979190810190610ccb565b610189565b6040516100ac9493929190610fab565b60405180910390f35b6100bd6104a1565b6040516100ca9190610f90565b60405180910390f35b6100ed60048036036100e89190810190610cf4565b6104a7565b005b61010960048036036101049190810190610d73565b610502565b005b61012560048036036101209190810190610ccb565b610820565b6040516101329190610f90565b60405180910390f35b61015560048036036101509190810190610c5f565b61083e565b6040516101629190610f53565b60405180910390f35b610173610897565b6040516101809190610f6e565b60405180910390f35b60006060806060600260008681526020019081526020016000206000015460026000878152602001908152602001600020600201600260008881526020019081526020016000206003016002600089815260200190815260200160002060040182805480602002602001604051908101604052809291908181526020016000905b828210156102c6578382906000526020600020018054600181600116156101000203166002900480601f0160208091040260200160405190810160405280929190818152602001828054600181600116156101000203166002900480156102b25780601f10610287576101008083540402835291602001916102b2565b820191906000526020600020905b81548152906001019060200180831161029557829003601f168201915b50505050508152602001906001019061020a565b50505050925081805480602002602001604051908101604052809291908181526020016000905b828210156103a9578382906000526020600020018054600181600116156101000203166002900480601f0160208091040260200160405190810160405280929190818152602001828054600181600116156101000203166002900480156103955780601f1061036a57610100808354040283529160200191610395565b820191906000526020600020905b81548152906001019060200180831161037857829003601f168201915b5050505050815260200190600101906102ed565b50505050915080805480602002602001604051908101604052809291908181526020016000905b8282101561048c578382906000526020600020018054600181600116156101000203166002900480601f0160208091040260200160405190810160405280929190818152602001828054600181600116156101000203166002900480156104785780601f1061044d57610100808354040283529160200191610478565b820191906000526020600020905b81548152906001019060200180831161045b57829003601f168201915b5050505050815260200190600101906103d0565b50505050905093509350935093509193509193565b60005481565b816002600085815260200190815260200160002060030190805190602001906104d1929190610935565b50806002600085815260200190815260200160002060040190805190602001906104fc929190610935565b50505050565b8260026000858152602001908152602001600020600001819055506002600084815260200190815260200160002060020182908060018154018082558091505090600182039060005260206000200160009091929091909150908051906020019061056e929190610995565b5050600260008481526020019081526020016000206003018190806001815401808255809150509060018203906000526020600020016000909192909190915090805190602001906105c1929190610995565b505060026000848152602001908152602001600020600101805490506000819055506002600084815260200190815260200160002060010160005490806001815401808255809150509060018203906000526020600020016000909192909190915055506000610705600260008681526020019081526020016000206003016000548154811061064d57fe5b906000526020600020018054600181600116156101000203166002900480601f0160208091040260200160405190810160405280929190818152602001828054600181600116156101000203166002900480156106eb5780601f106106c0576101008083540402835291602001916106eb565b820191906000526020600020905b8154815290600101906020018083116106ce57829003601f168201915b50505050506040518060200160405280600081525061083e565b90508061079557600260008581526020019081526020016000206004018060018154018082558091505090600182039060005260206000200160006040518060400160405280600781526020017f70656e64696e67000000000000000000000000000000000000000000000000008152509091909150908051906020019061078e929190610995565b505061081a565b600260008581526020019081526020016000206004018060018154018082558091505090600182039060005260206000200160006040518060400160405280600481526020017f6e756c6c0000000000000000000000000000000000000000000000000000000081525090919091509080519060200190610817929190610995565b50505b50505050565b60026020528060005260406000206000915090508060000154905081565b6000816040516020016108519190610f3c565b60405160208183030381529060405280519060200120836040516020016108789190610f3c565b6040516020818303038152906040528051906020012014905092915050565b60018054600181600116156101000203166002900480601f01602080910402602001604051908101604052809291908181526020018280546001816001161561010002031660029004801561092d5780601f106109025761010080835404028352916020019161092d565b820191906000526020600020905b81548152906001019060200180831161091057829003601f168201915b505050505081565b828054828255906000526020600020908101928215610984579160200282015b82811115610983578251829080519060200190610973929190610a15565b5091602001919060010190610955565b5b5090506109919190610a95565b5090565b828054600181600116156101000203166002900490600052602060002090601f016020900481019282601f106109d657805160ff1916838001178555610a04565b82800160010185558215610a04579182015b82811115610a035782518255916020019190600101906109e8565b5b509050610a119190610ac1565b5090565b828054600181600116156101000203166002900490600052602060002090601f016020900481019282601f10610a5657805160ff1916838001178555610a84565b82800160010185558215610a84579182015b82811115610a83578251825591602001919060010190610a68565b5b509050610a919190610ac1565b5090565b610abe91905b80821115610aba5760008181610ab19190610ae6565b50600101610a9b565b5090565b90565b610ae391905b80821115610adf576000816000905550600101610ac7565b5090565b90565b50805460018160011615610100020316600290046000825580601f10610b0c5750610b2b565b601f016020900490600052602060002090810190610b2a9190610ac1565b5b50565b600082601f830112610b3f57600080fd5b8135610b52610b4d82611032565b611005565b9150818183526020840193506020810190508360005b83811015610b985781358601610b7e8882610ba2565b845260208401935060208301925050600181019050610b68565b5050505092915050565b600082601f830112610bb357600080fd5b8135610bc6610bc18261105a565b611005565b91508082526020830160208301858383011115610be257600080fd5b610bed838284611144565b50505092915050565b600082601f830112610c0757600080fd5b8135610c1a610c1582611086565b611005565b91508082526020830160208301858383011115610c3657600080fd5b610c41838284611144565b50505092915050565b600081359050610c5981611197565b92915050565b60008060408385031215610c7257600080fd5b600083013567ffffffffffffffff811115610c8c57600080fd5b610c9885828601610bf6565b925050602083013567ffffffffffffffff811115610cb557600080fd5b610cc185828601610bf6565b9150509250929050565b600060208284031215610cdd57600080fd5b6000610ceb84828501610c4a565b91505092915050565b600080600060608486031215610d0957600080fd5b6000610d1786828701610c4a565b935050602084013567ffffffffffffffff811115610d3457600080fd5b610d4086828701610b2e565b925050604084013567ffffffffffffffff811115610d5d57600080fd5b610d6986828701610b2e565b9150509250925092565b600080600060608486031215610d8857600080fd5b6000610d9686828701610c4a565b935050602084013567ffffffffffffffff811115610db357600080fd5b610dbf86828701610bf6565b925050604084013567ffffffffffffffff811115610ddc57600080fd5b610de886828701610bf6565b9150509250925092565b6000610dfe8383610ebb565b905092915050565b6000610e11826110c2565b610e1b81856110f0565b935083602082028501610e2d856110b2565b8060005b85811015610e695784840389528151610e4a8582610df2565b9450610e55836110e3565b925060208a01995050600181019050610e31565b50829750879550505050505092915050565b610e848161112e565b82525050565b6000610e95826110d8565b610e9f8185611123565b9350610eaf818560208601611153565b80840191505092915050565b6000610ec6826110cd565b610ed08185611101565b9350610ee0818560208601611153565b610ee981611186565b840191505092915050565b6000610eff826110cd565b610f098185611112565b9350610f19818560208601611153565b610f2281611186565b840191505092915050565b610f368161113a565b82525050565b6000610f488284610e8a565b915081905092915050565b6000602082019050610f686000830184610e7b565b92915050565b60006020820190508181036000830152610f888184610ef4565b905092915050565b6000602082019050610fa56000830184610f2d565b92915050565b6000608082019050610fc06000830187610f2d565b8181036020830152610fd28186610e06565b90508181036040830152610fe68185610e06565b90508181036060830152610ffa8184610e06565b905095945050505050565b6000604051905081810181811067ffffffffffffffff8211171561102857600080fd5b8060405250919050565b600067ffffffffffffffff82111561104957600080fd5b602082029050602081019050919050565b600067ffffffffffffffff82111561107157600080fd5b601f19601f8301169050602081019050919050565b600067ffffffffffffffff82111561109d57600080fd5b601f19601f8301169050602081019050919050565b6000819050602082019050919050565b600081519050919050565b600081519050919050565b600081519050919050565b6000602082019050919050565b600082825260208201905092915050565b600082825260208201905092915050565b600082825260208201905092915050565b600081905092915050565b60008115159050919050565b6000819050919050565b82818337600083830152505050565b60005b83811015611171578082015181840152602081019050611156565b83811115611180576000848401525b50505050565b6000601f19601f8301169050919050565b6111a08161113a565b81146111ab57600080fd5b5056fea365627a7a723158201e6519630aebbc2af5c544b88184dd0770348f776b5b3e2536900e4b5a661d5d6c6578706572696d656e74616cf564736f6c63430005100040",
  "source": "pragma solidity ^0.5.0;\npragma experimental ABIEncoderV2;\ncontract Presc {\n    // uint ReportLength = RequestReport.length;\n   // uint public ReqRep=0;\n    uint public index ;\n    string public lastTestStringResult; \nstruct pres {\n  uint id;\nuint []ReqRep;\n  string[] meds;\n  string[] RequestReport;\n  string[] isResolved;\n}\nmapping(uint => pres) public userStructs;\n\n\nfunction addMed(uint _id, string memory med, string memory _reqRep) public  {\nuserStructs[_id].id = _id;\n  userStructs[_id].meds.push(med);\n  userStructs[_id].RequestReport.push(_reqRep);\n // if(userStructs[_id].ReqRep.length == 0){\n    index = (userStructs[_id].ReqRep.length);\n  /*}else\n  {\n      index = ( userStructs[_id].ReqRep.length);\n  }*/\nuserStructs[_id].ReqRep.push(index);\n    bool compBool =  compareStrings((userStructs[_id].RequestReport[index]),\"\");\n        if(!compBool){\n                userStructs[_id].isResolved.push(\"pending\");\n        }\n        else{\n                userStructs[_id].isResolved.push(\"null\");\n        }\n    }\n  function compareStrings (string memory a, string memory b) public  returns (bool) {\n            return (keccak256(abi.encodePacked((a))) == keccak256(abi.encodePacked((b))) );\n       }\n       \n         \nfunction getData(uint _pid) public view returns (uint, string[] memory,string[] memory,string[] memory){\n      return (userStructs[_pid].id,userStructs[_pid].meds,userStructs[_pid].RequestReport,userStructs[_pid].isResolved);\n   }\n   \n   \n    \n    function updateArray(uint _id, string[] memory _reqRep,string[] memory _isResolved) public {\n      //  userStructs[_id].meds.push(med);\n        userStructs[_id].RequestReport = _reqRep;\n     userStructs[_id].isResolved = _isResolved;\n    }\n}",
  "sourcePath": "/home/tarun/Desktop/MMi/src/contracts/Prescription.sol",
  "compiler": {
    "name": "solc",
    "version": "0.5.16+commit.9c3226ce.Emscripten.clang"
  },
  "schemaVersion": "3.0.23",
  "updatedAt": "2020-04-19T11:07:10.721Z",
  "networkType": "ethereum",
  "devdoc": {
    "methods": {}
  },
  "userdoc": {
    "methods": {}
  }
}